{
  "contractName": "Poisoned",
  "abi": [
    {
      "inputs": [],
      "payable": true,
      "stateMutability": "payable",
      "type": "constructor"
    },
    {
      "payable": false,
      "stateMutability": "nonpayable",
      "type": "fallback"
    },
    {
      "constant": false,
      "inputs": [
        {
          "name": "amount",
          "type": "uint256"
        }
      ],
      "name": "bid",
      "outputs": [],
      "payable": false,
      "stateMutability": "nonpayable",
      "type": "function"
    },
    {
      "constant": false,
      "inputs": [],
      "name": "reduceBid",
      "outputs": [],
      "payable": false,
      "stateMutability": "nonpayable",
      "type": "function"
    },
    {
      "constant": false,
      "inputs": [
        {
          "name": "auction",
          "type": "address"
        }
      ],
      "name": "setTarget",
      "outputs": [],
      "payable": false,
      "stateMutability": "nonpayable",
      "type": "function"
    },
    {
      "constant": true,
      "inputs": [],
      "name": "getTarget",
      "outputs": [
        {
          "name": "",
          "type": "address"
        }
      ],
      "payable": false,
      "stateMutability": "view",
      "type": "function"
    },
    {
      "constant": true,
      "inputs": [],
      "name": "getBalance",
      "outputs": [
        {
          "name": "",
          "type": "uint256"
        }
      ],
      "payable": false,
      "stateMutability": "view",
      "type": "function"
    }
  ],
  "bytecode": "0x60806040526104b4806100136000396000f30060806040526004361061006d576000357c0100000000000000000000000000000000000000000000000000000000900463ffffffff168063057ae2351461007c57806312065fe014610093578063454a2ab3146100be578063776d1a01146100eb578063f00e6a2a1461012e575b34801561007957600080fd5b50005b34801561008857600080fd5b50610091610185565b005b34801561009f57600080fd5b506100a8610281565b6040518082815260200191505060405180910390f35b3480156100ca57600080fd5b506100e9600480360381019080803590602001909291905050506102a0565b005b3480156100f757600080fd5b5061012c600480360381019080803573ffffffffffffffffffffffffffffffffffffffff1690602001909291905050506103e6565b005b34801561013a57600080fd5b5061014361045f565b604051808273ffffffffffffffffffffffffffffffffffffffff1673ffffffffffffffffffffffffffffffffffffffff16815260200191505060405180910390f35b60008073ffffffffffffffffffffffffffffffffffffffff166000809054906101000a900473ffffffffffffffffffffffffffffffffffffffff1673ffffffffffffffffffffffffffffffffffffffff1614151561027e576000809054906101000a900473ffffffffffffffffffffffffffffffffffffffff1690508073ffffffffffffffffffffffffffffffffffffffff1663057ae2356040518163ffffffff167c0100000000000000000000000000000000000000000000000000000000028152600401600060405180830381600087803b15801561026557600080fd5b505af1158015610279573d6000803e3d6000fd5b505050505b50565b60003073ffffffffffffffffffffffffffffffffffffffff1631905090565b60003073ffffffffffffffffffffffffffffffffffffffff163182111580156103175750600073ffffffffffffffffffffffffffffffffffffffff166000809054906101000a900473ffffffffffffffffffffffffffffffffffffffff1673ffffffffffffffffffffffffffffffffffffffff1614155b156103e2576000809054906101000a900473ffffffffffffffffffffffffffffffffffffffff1690508073ffffffffffffffffffffffffffffffffffffffff16631998aeef836040518263ffffffff167c01000000000000000000000000000000000000000000000000000000000281526004016020604051808303818588803b1580156103a457600080fd5b505af11580156103b8573d6000803e3d6000fd5b50505050506040513d60208110156103cf57600080fd5b8101908080519060200190929190505050505b5050565b3073ffffffffffffffffffffffffffffffffffffffff168173ffffffffffffffffffffffffffffffffffffffff1614151561045c57806000806101000a81548173ffffffffffffffffffffffffffffffffffffffff021916908373ffffffffffffffffffffffffffffffffffffffff1602179055505b50565b60008060009054906101000a900473ffffffffffffffffffffffffffffffffffffffff169050905600a165627a7a72305820583a73e23d64b684bf0df6a3c2f27d65ee2a6ba850918095cca3e12f79e64dc20029",
  "source": "pragma solidity 0.4.24;\r\n\r\nimport \"./AuctionInterface.sol\";\r\n\r\n/** @title Poisoned */\r\ncontract Poisoned {\r\n\r\n\taddress target;\r\n\r\n\t/* Constructor */\r\n\tconstructor() payable {}\r\n\r\n\t/* Bid function */\r\n\tfunction bid(uint amount) external {\r\n\t\tif ((amount <= address(this).balance) && (target != address(0))) {\r\n\t\t\tAuctionInterface _target = AuctionInterface(target);\r\n\t\t\t_target.bid.value(amount)();\r\n\t\t}\r\n\t}\r\n\r\n\tfunction reduceBid() external {\r\n\t\tif (target != address(0)) {\r\n\t\t\tAuctionInterface _target = AuctionInterface(target);\r\n\t\t\t_target.reduceBid();\r\n\t\t}\r\n\t}\r\n\r\n\tfunction setTarget(address auction) external {\r\n\t\tif (auction != address(this)) {\r\n\t\t\ttarget = auction;\r\n\t\t}\r\n\t}\r\n\r\n\tfunction getTarget() constant returns (address) {\r\n\t\treturn target;\r\n\t}\r\n\r\n\tfunction getBalance() constant returns (uint) {\r\n\t\treturn address(this).balance;\r\n\t}\r\n\r\n\tfunction() {}\r\n}\r\n",
  "sourcePath": "C:\\Users\\phangjunyu\\Desktop\\sp18-lab03\\contracts\\Poisoned.sol",
  "compiler": {
    "name": "solc",
    "version": "0.4.24+commit.e67f0147.Emscripten.clang"
  },
  "schemaVersion": "2.0.1",
  "updatedAt": "2018-07-07T00:41:39.762Z"
}